{
  "_format": "hh-sol-artifact-1",
  "contractName": "MurmurationsAlpha",
  "sourceName": "contracts/MurmurationsAlpha.sol",
  "abi": [
    {
      "inputs": [],
      "stateMutability": "nonpayable",
      "type": "constructor"
    },
    {
      "anonymous": false,
      "inputs": [
        {
          "indexed": true,
          "internalType": "address",
          "name": "owner",
          "type": "address"
        },
        {
          "indexed": true,
          "internalType": "address",
          "name": "approved",
          "type": "address"
        },
        {
          "indexed": true,
          "internalType": "uint256",
          "name": "tokenId",
          "type": "uint256"
        }
      ],
      "name": "Approval",
      "type": "event"
    },
    {
      "anonymous": false,
      "inputs": [
        {
          "indexed": true,
          "internalType": "address",
          "name": "owner",
          "type": "address"
        },
        {
          "indexed": true,
          "internalType": "address",
          "name": "operator",
          "type": "address"
        },
        {
          "indexed": false,
          "internalType": "bool",
          "name": "approved",
          "type": "bool"
        }
      ],
      "name": "ApprovalForAll",
      "type": "event"
    },
    {
      "anonymous": false,
      "inputs": [
        {
          "indexed": true,
          "internalType": "address",
          "name": "from",
          "type": "address"
        },
        {
          "indexed": true,
          "internalType": "address",
          "name": "to",
          "type": "address"
        },
        {
          "indexed": true,
          "internalType": "uint256",
          "name": "tokenId",
          "type": "uint256"
        }
      ],
      "name": "Transfer",
      "type": "event"
    },
    {
      "anonymous": false,
      "inputs": [
        {
          "indexed": false,
          "internalType": "address",
          "name": "sender",
          "type": "address"
        },
        {
          "indexed": false,
          "internalType": "uint256",
          "name": "tokenId",
          "type": "uint256"
        }
      ],
      "name": "murmurationsCounted",
      "type": "event"
    },
    {
      "anonymous": false,
      "inputs": [
        {
          "indexed": false,
          "internalType": "address",
          "name": "sender",
          "type": "address"
        },
        {
          "indexed": false,
          "internalType": "uint256",
          "name": "tokenId",
          "type": "uint256"
        }
      ],
      "name": "newMurmurationMinted",
      "type": "event"
    },
    {
      "inputs": [
        {
          "internalType": "address",
          "name": "to",
          "type": "address"
        },
        {
          "internalType": "uint256",
          "name": "tokenId",
          "type": "uint256"
        }
      ],
      "name": "approve",
      "outputs": [],
      "stateMutability": "nonpayable",
      "type": "function"
    },
    {
      "inputs": [
        {
          "internalType": "address",
          "name": "owner",
          "type": "address"
        }
      ],
      "name": "balanceOf",
      "outputs": [
        {
          "internalType": "uint256",
          "name": "",
          "type": "uint256"
        }
      ],
      "stateMutability": "view",
      "type": "function"
    },
    {
      "inputs": [],
      "name": "countMurmurations",
      "outputs": [
        {
          "internalType": "uint256",
          "name": "totalMurmurations",
          "type": "uint256"
        }
      ],
      "stateMutability": "nonpayable",
      "type": "function"
    },
    {
      "inputs": [
        {
          "internalType": "uint256",
          "name": "tokenId",
          "type": "uint256"
        }
      ],
      "name": "getApproved",
      "outputs": [
        {
          "internalType": "address",
          "name": "",
          "type": "address"
        }
      ],
      "stateMutability": "view",
      "type": "function"
    },
    {
      "inputs": [
        {
          "internalType": "address",
          "name": "owner",
          "type": "address"
        },
        {
          "internalType": "address",
          "name": "operator",
          "type": "address"
        }
      ],
      "name": "isApprovedForAll",
      "outputs": [
        {
          "internalType": "bool",
          "name": "",
          "type": "bool"
        }
      ],
      "stateMutability": "view",
      "type": "function"
    },
    {
      "inputs": [],
      "name": "mintMurmuration",
      "outputs": [],
      "stateMutability": "nonpayable",
      "type": "function"
    },
    {
      "inputs": [],
      "name": "name",
      "outputs": [
        {
          "internalType": "string",
          "name": "",
          "type": "string"
        }
      ],
      "stateMutability": "view",
      "type": "function"
    },
    {
      "inputs": [
        {
          "internalType": "uint256",
          "name": "tokenId",
          "type": "uint256"
        }
      ],
      "name": "ownerOf",
      "outputs": [
        {
          "internalType": "address",
          "name": "",
          "type": "address"
        }
      ],
      "stateMutability": "view",
      "type": "function"
    },
    {
      "inputs": [
        {
          "internalType": "address",
          "name": "from",
          "type": "address"
        },
        {
          "internalType": "address",
          "name": "to",
          "type": "address"
        },
        {
          "internalType": "uint256",
          "name": "tokenId",
          "type": "uint256"
        }
      ],
      "name": "safeTransferFrom",
      "outputs": [],
      "stateMutability": "nonpayable",
      "type": "function"
    },
    {
      "inputs": [
        {
          "internalType": "address",
          "name": "from",
          "type": "address"
        },
        {
          "internalType": "address",
          "name": "to",
          "type": "address"
        },
        {
          "internalType": "uint256",
          "name": "tokenId",
          "type": "uint256"
        },
        {
          "internalType": "bytes",
          "name": "_data",
          "type": "bytes"
        }
      ],
      "name": "safeTransferFrom",
      "outputs": [],
      "stateMutability": "nonpayable",
      "type": "function"
    },
    {
      "inputs": [
        {
          "internalType": "address",
          "name": "operator",
          "type": "address"
        },
        {
          "internalType": "bool",
          "name": "approved",
          "type": "bool"
        }
      ],
      "name": "setApprovalForAll",
      "outputs": [],
      "stateMutability": "nonpayable",
      "type": "function"
    },
    {
      "inputs": [
        {
          "internalType": "bytes4",
          "name": "interfaceId",
          "type": "bytes4"
        }
      ],
      "name": "supportsInterface",
      "outputs": [
        {
          "internalType": "bool",
          "name": "",
          "type": "bool"
        }
      ],
      "stateMutability": "view",
      "type": "function"
    },
    {
      "inputs": [],
      "name": "symbol",
      "outputs": [
        {
          "internalType": "string",
          "name": "",
          "type": "string"
        }
      ],
      "stateMutability": "view",
      "type": "function"
    },
    {
      "inputs": [
        {
          "internalType": "uint256",
          "name": "tokenId",
          "type": "uint256"
        }
      ],
      "name": "tokenURI",
      "outputs": [
        {
          "internalType": "string",
          "name": "",
          "type": "string"
        }
      ],
      "stateMutability": "view",
      "type": "function"
    },
    {
      "inputs": [
        {
          "internalType": "address",
          "name": "from",
          "type": "address"
        },
        {
          "internalType": "address",
          "name": "to",
          "type": "address"
        },
        {
          "internalType": "uint256",
          "name": "tokenId",
          "type": "uint256"
        }
      ],
      "name": "transferFrom",
      "outputs": [],
      "stateMutability": "nonpayable",
      "type": "function"
    }
  ],
  "bytecode": "0x60806040523480156200001157600080fd5b506040518060400160405280600b81526020017f4d75726d75726174696f6e0000000000000000000000000000000000000000008152506040518060400160405280600681526020017f4d55524d55520000000000000000000000000000000000000000000000000000815250816000908051906020019062000096929190620001b3565b508060019080519060200190620000af929190620001b3565b505050620000e16040518060600160405280602381526020016200393b60239139620000e760201b62000cbb1760201c565b62000390565b6200018781604051602401620000fe9190620002a4565b6040516020818303038152906040527f41304fac000000000000000000000000000000000000000000000000000000007bffffffffffffffffffffffffffffffffffffffffffffffffffffffff19166020820180517bffffffffffffffffffffffffffffffffffffffffffffffffffffffff83818316178352505050506200018a60201b60201c565b50565b60008151905060006a636f6e736f6c652e6c6f679050602083016000808483855afa5050505050565b828054620001c1906200031a565b90600052602060002090601f016020900481019282620001e5576000855562000231565b82601f106200020057805160ff191683800117855562000231565b8280016001018555821562000231579182015b828111156200023057825182559160200191906001019062000213565b5b50905062000240919062000244565b5090565b5b808211156200025f57600081600090555060010162000245565b5090565b60006200027082620002c8565b6200027c8185620002d3565b93506200028e818560208601620002e4565b62000299816200037f565b840191505092915050565b60006020820190508181036000830152620002c0818462000263565b905092915050565b600081519050919050565b600082825260208201905092915050565b60005b8381101562000304578082015181840152602081019050620002e7565b8381111562000314576000848401525b50505050565b600060028204905060018216806200033357607f821691505b602082108114156200034a576200034962000350565b5b50919050565b7f4e487b7100000000000000000000000000000000000000000000000000000000600052602260045260246000fd5b6000601f19601f8301169050919050565b61359b80620003a06000396000f3fe608060405234801561001057600080fd5b50600436106100f55760003560e01c806370a0823111610097578063c87b56dd11610066578063c87b56dd14610282578063d1496a36146102b2578063e4705270146102bc578063e985e9c5146102da576100f5565b806370a08231146101fc57806395d89b411461022c578063a22cb4651461024a578063b88d4fde14610266576100f5565b8063095ea7b3116100d3578063095ea7b31461017857806323b872dd1461019457806342842e0e146101b05780636352211e146101cc576100f5565b806301ffc9a7146100fa57806306fdde031461012a578063081812fc14610148575b600080fd5b610114600480360381019061010f91906122da565b61030a565b6040516101219190612d84565b60405180910390f35b6101326103ec565b60405161013f9190612d9f565b60405180910390f35b610162600480360381019061015d919061232c565b61047e565b60405161016f9190612cf4565b60405180910390f35b610192600480360381019061018d919061229e565b610503565b005b6101ae60048036038101906101a99190612198565b61061b565b005b6101ca60048036038101906101c59190612198565b61067b565b005b6101e660048036038101906101e1919061232c565b61069b565b6040516101f39190612cf4565b60405180910390f35b61021660048036038101906102119190612133565b61074d565b6040516102239190613064565b60405180910390f35b610234610805565b6040516102419190612d9f565b60405180910390f35b610264600480360381019061025f9190612262565b610897565b005b610280600480360381019061027b91906121e7565b6108ad565b005b61029c6004803603810190610297919061232c565b61090f565b6040516102a99190612d9f565b60405180910390f35b6102ba610a61565b005b6102c4610b9e565b6040516102d19190613064565b60405180910390f35b6102f460048036038101906102ef919061215c565b610c27565b6040516103019190612d84565b60405180910390f35b60007f80ac58cd000000000000000000000000000000000000000000000000000000007bffffffffffffffffffffffffffffffffffffffffffffffffffffffff1916827bffffffffffffffffffffffffffffffffffffffffffffffffffffffff191614806103d557507f5b5e139f000000000000000000000000000000000000000000000000000000007bffffffffffffffffffffffffffffffffffffffffffffffffffffffff1916827bffffffffffffffffffffffffffffffffffffffffffffffffffffffff1916145b806103e557506103e482610d54565b5b9050919050565b6060600080546103fb90613318565b80601f016020809104026020016040519081016040528092919081815260200182805461042790613318565b80156104745780601f1061044957610100808354040283529160200191610474565b820191906000526020600020905b81548152906001019060200180831161045757829003601f168201915b5050505050905090565b600061048982610dbe565b6104c8576040517f08c379a00000000000000000000000000000000000000000000000000000000081526004016104bf90612fc4565b60405180910390fd5b6004600083815260200190815260200160002060009054906101000a900473ffffffffffffffffffffffffffffffffffffffff169050919050565b600061050e8261069b565b90508073ffffffffffffffffffffffffffffffffffffffff168373ffffffffffffffffffffffffffffffffffffffff16141561057f576040517f08c379a000000000000000000000000000000000000000000000000000000000815260040161057690613024565b60405180910390fd5b8073ffffffffffffffffffffffffffffffffffffffff1661059e610e2a565b73ffffffffffffffffffffffffffffffffffffffff1614806105cd57506105cc816105c7610e2a565b610c27565b5b61060c576040517f08c379a000000000000000000000000000000000000000000000000000000000815260040161060390612f04565b60405180910390fd5b6106168383610e32565b505050565b61062c610626610e2a565b82610eeb565b61066b576040517f08c379a000000000000000000000000000000000000000000000000000000000815260040161066290613044565b60405180910390fd5b610676838383610fc9565b505050565b610696838383604051806020016040528060008152506108ad565b505050565b6000806002600084815260200190815260200160002060009054906101000a900473ffffffffffffffffffffffffffffffffffffffff169050600073ffffffffffffffffffffffffffffffffffffffff168173ffffffffffffffffffffffffffffffffffffffff161415610744576040517f08c379a000000000000000000000000000000000000000000000000000000000815260040161073b90612f44565b60405180910390fd5b80915050919050565b60008073ffffffffffffffffffffffffffffffffffffffff168273ffffffffffffffffffffffffffffffffffffffff1614156107be576040517f08c379a00000000000000000000000000000000000000000000000000000000081526004016107b590612f24565b60405180910390fd5b600360008373ffffffffffffffffffffffffffffffffffffffff1673ffffffffffffffffffffffffffffffffffffffff168152602001908152602001600020549050919050565b60606001805461081490613318565b80601f016020809104026020016040519081016040528092919081815260200182805461084090613318565b801561088d5780601f106108625761010080835404028352916020019161088d565b820191906000526020600020905b81548152906001019060200180831161087057829003601f168201915b5050505050905090565b6108a96108a2610e2a565b8383611225565b5050565b6108be6108b8610e2a565b83610eeb565b6108fd576040517f08c379a00000000000000000000000000000000000000000000000000000000081526004016108f490613044565b60405180910390fd5b61090984848484611392565b50505050565b606061091a82610dbe565b610959576040517f08c379a000000000000000000000000000000000000000000000000000000000815260040161095090612fa4565b60405180910390fd5b600060066000848152602001908152602001600020805461097990613318565b80601f01602080910402602001604051908101604052809291908181526020018280546109a590613318565b80156109f25780601f106109c7576101008083540402835291602001916109f2565b820191906000526020600020905b8154815290600101906020018083116109d557829003601f168201915b505050505090506000610a036113ee565b9050600081511415610a19578192505050610a5c565b600082511115610a4e578082604051602001610a36929190612c51565b60405160208183030381529060405292505050610a5c565b610a5784611405565b925050505b919050565b6000610a6d60076114ac565b905060078110610ab2576040517f08c379a0000000000000000000000000000000000000000000000000000000008152600401610aa990612e84565b60405180910390fd5b610abc33826114ba565b6000610b02610aca836114d8565b610ad3846114d8565b610adc856114d8565b604051602001610aee93929190612c75565b60405160208183030381529060405261168b565b9050600081604051602001610b179190612cd2565b6040516020818303038152906040529050610b328382611849565b610b566040518060600160405280603881526020016134ee603891398433846118bd565b610b60600761195f565b7fe9dec53420fc3f9650fcb37872716af0ed0f1192fa4f4cb2f654f01daac3b6013384604051610b91929190612d5b565b60405180910390a1505050565b6000610baa60076114ac565b9050610beb6040518060400160405280601d81526020017f546f74616c206d75726d75726174696f6e73206d696e7465643a20257300000081525082611975565b7f80763a7be6987336b86d7d0ad6b03fe808b5429d83d51c1ed2c7779afb8a20943382604051610c1c929190612d5b565b60405180910390a190565b6000600560008473ffffffffffffffffffffffffffffffffffffffff1673ffffffffffffffffffffffffffffffffffffffff16815260200190815260200160002060008373ffffffffffffffffffffffffffffffffffffffff1673ffffffffffffffffffffffffffffffffffffffff16815260200190815260200160002060009054906101000a900460ff16905092915050565b610d5181604051602401610ccf9190612d9f565b6040516020818303038152906040527f41304fac000000000000000000000000000000000000000000000000000000007bffffffffffffffffffffffffffffffffffffffffffffffffffffffff19166020820180517bffffffffffffffffffffffffffffffffffffffffffffffffffffffff8381831617835250505050611a11565b50565b60007f01ffc9a7000000000000000000000000000000000000000000000000000000007bffffffffffffffffffffffffffffffffffffffffffffffffffffffff1916827bffffffffffffffffffffffffffffffffffffffffffffffffffffffff1916149050919050565b60008073ffffffffffffffffffffffffffffffffffffffff166002600084815260200190815260200160002060009054906101000a900473ffffffffffffffffffffffffffffffffffffffff1673ffffffffffffffffffffffffffffffffffffffff1614159050919050565b600033905090565b816004600083815260200190815260200160002060006101000a81548173ffffffffffffffffffffffffffffffffffffffff021916908373ffffffffffffffffffffffffffffffffffffffff160217905550808273ffffffffffffffffffffffffffffffffffffffff16610ea58361069b565b73ffffffffffffffffffffffffffffffffffffffff167f8c5be1e5ebec7d5bd14f71427d1e84f3dd0314c0f7b2291e5b200ac8c7c3b92560405160405180910390a45050565b6000610ef682610dbe565b610f35576040517f08c379a0000000000000000000000000000000000000000000000000000000008152600401610f2c90612ee4565b60405180910390fd5b6000610f408361069b565b90508073ffffffffffffffffffffffffffffffffffffffff168473ffffffffffffffffffffffffffffffffffffffff161480610faf57508373ffffffffffffffffffffffffffffffffffffffff16610f978461047e565b73ffffffffffffffffffffffffffffffffffffffff16145b80610fc05750610fbf8185610c27565b5b91505092915050565b8273ffffffffffffffffffffffffffffffffffffffff16610fe98261069b565b73ffffffffffffffffffffffffffffffffffffffff161461103f576040517f08c379a000000000000000000000000000000000000000000000000000000000815260040161103690612fe4565b60405180910390fd5b600073ffffffffffffffffffffffffffffffffffffffff168273ffffffffffffffffffffffffffffffffffffffff1614156110af576040517f08c379a00000000000000000000000000000000000000000000000000000000081526004016110a690612ea4565b60405180910390fd5b6110ba838383611a3a565b6110c5600082610e32565b6001600360008573ffffffffffffffffffffffffffffffffffffffff1673ffffffffffffffffffffffffffffffffffffffff16815260200190815260200160002060008282546111159190613204565b925050819055506001600360008473ffffffffffffffffffffffffffffffffffffffff1673ffffffffffffffffffffffffffffffffffffffff168152602001908152602001600020600082825461116c9190613123565b92505081905550816002600083815260200190815260200160002060006101000a81548173ffffffffffffffffffffffffffffffffffffffff021916908373ffffffffffffffffffffffffffffffffffffffff160217905550808273ffffffffffffffffffffffffffffffffffffffff168473ffffffffffffffffffffffffffffffffffffffff167fddf252ad1be2c89b69c2b068fc378daa952ba7f163c4a11628f55a4df523b3ef60405160405180910390a4505050565b8173ffffffffffffffffffffffffffffffffffffffff168373ffffffffffffffffffffffffffffffffffffffff161415611294576040517f08c379a000000000000000000000000000000000000000000000000000000000815260040161128b90612ec4565b60405180910390fd5b80600560008573ffffffffffffffffffffffffffffffffffffffff1673ffffffffffffffffffffffffffffffffffffffff16815260200190815260200160002060008473ffffffffffffffffffffffffffffffffffffffff1673ffffffffffffffffffffffffffffffffffffffff16815260200190815260200160002060006101000a81548160ff0219169083151502179055508173ffffffffffffffffffffffffffffffffffffffff168373ffffffffffffffffffffffffffffffffffffffff167f17307eab39ab6107e8899845ad3d59bd9653f200f220920489ca2b5937696c31836040516113859190612d84565b60405180910390a3505050565b61139d848484610fc9565b6113a984848484611a3f565b6113e8576040517f08c379a00000000000000000000000000000000000000000000000000000000081526004016113df90612e44565b60405180910390fd5b50505050565b606060405180602001604052806000815250905090565b606061141082610dbe565b61144f576040517f08c379a000000000000000000000000000000000000000000000000000000000815260040161144690613004565b60405180910390fd5b60006114596113ee565b9050600081511161147957604051806020016040528060008152506114a4565b8061148384611bd6565b604051602001611494929190612c51565b6040516020818303038152906040525b915050919050565b600081600001549050919050565b6114d4828260405180602001604052806000815250611d83565b5050565b60606000821415611520576040518060400160405280600181526020017f30000000000000000000000000000000000000000000000000000000000000008152509050611686565b600082905060005b6000821461155257808061153b9061334a565b915050600a8261154b9190613179565b9150611528565b60008167ffffffffffffffff811115611594577f4e487b7100000000000000000000000000000000000000000000000000000000600052604160045260246000fd5b6040519080825280601f01601f1916602001820160405280156115c65781602001600182028036833780820191505090505b50905060008290508593505b6000841461167e57600a846115e79190613393565b60306115f39190613123565b60f81b8282611601906132ee565b9250828151811061163b577f4e487b7100000000000000000000000000000000000000000000000000000000600052603260045260246000fd5b60200101907effffffffffffffffffffffffffffffffffffffffffffffffffffffffffffff1916908160001a905350600a846116779190613179565b93506115d2565b819450505050505b919050565b606060008251905060008114156116b45760405180602001604052806000815250915050611844565b600060036002836116c59190613123565b6116cf9190613179565b60046116db91906131aa565b905060006020826116ec9190613123565b67ffffffffffffffff81111561172b577f4e487b7100000000000000000000000000000000000000000000000000000000600052604160045260246000fd5b6040519080825280601f01601f19166020018201604052801561175d5781602001600182028036833780820191505090505b5090506000604051806060016040528060408152602001613526604091399050600181016020830160005b868110156118015760038101905062ffffff818a015116603f8160121c168401518060081b905060ff603f83600c1c1686015116810190508060081b905060ff603f8360061c1686015116810190508060081b905060ff603f831686015116810190508060e01b90508084526004840193505050611788565b50600386066001811461181b576002811461182b57611836565b613d3d60f01b6002830352611836565b603d60f81b60018303525b508484525050819450505050505b919050565b61185282610dbe565b611891576040517f08c379a000000000000000000000000000000000000000000000000000000000815260040161188890612f64565b60405180910390fd5b806006600084815260200190815260200160002090805190602001906118b8929190611fbf565b505050565b611959848484846040516024016118d79493929190612df1565b6040516020818303038152906040527f3254c2e8000000000000000000000000000000000000000000000000000000007bffffffffffffffffffffffffffffffffffffffffffffffffffffffff19166020820180517bffffffffffffffffffffffffffffffffffffffffffffffffffffffff8381831617835250505050611a11565b50505050565b6001816000016000828254019250508190555050565b611a0d828260405160240161198b929190612dc1565b6040516020818303038152906040527f9710a9d0000000000000000000000000000000000000000000000000000000007bffffffffffffffffffffffffffffffffffffffffffffffffffffffff19166020820180517bffffffffffffffffffffffffffffffffffffffffffffffffffffffff8381831617835250505050611a11565b5050565b60008151905060006a636f6e736f6c652e6c6f679050602083016000808483855afa5050505050565b505050565b6000611a608473ffffffffffffffffffffffffffffffffffffffff16611dde565b15611bc9578373ffffffffffffffffffffffffffffffffffffffff1663150b7a02611a89610e2a565b8786866040518563ffffffff1660e01b8152600401611aab9493929190612d0f565b602060405180830381600087803b158015611ac557600080fd5b505af1925050508015611af657506040513d601f19601f82011682018060405250810190611af39190612303565b60015b611b79573d8060008114611b26576040519150601f19603f3d011682016040523d82523d6000602084013e611b2b565b606091505b50600081511415611b71576040517f08c379a0000000000000000000000000000000000000000000000000000000008152600401611b6890612e44565b60405180910390fd5b805181602001fd5b63150b7a0260e01b7bffffffffffffffffffffffffffffffffffffffffffffffffffffffff1916817bffffffffffffffffffffffffffffffffffffffffffffffffffffffff191614915050611bce565b600190505b949350505050565b60606000821415611c1e576040518060400160405280600181526020017f30000000000000000000000000000000000000000000000000000000000000008152509050611d7e565b600082905060005b60008214611c50578080611c399061334a565b915050600a82611c499190613179565b9150611c26565b60008167ffffffffffffffff811115611c92577f4e487b7100000000000000000000000000000000000000000000000000000000600052604160045260246000fd5b6040519080825280601f01601f191660200182016040528015611cc45781602001600182028036833780820191505090505b5090505b60008514611d7757600182611cdd9190613204565b9150600a85611cec9190613393565b6030611cf89190613123565b60f81b818381518110611d34577f4e487b7100000000000000000000000000000000000000000000000000000000600052603260045260246000fd5b60200101907effffffffffffffffffffffffffffffffffffffffffffffffffffffffffffff1916908160001a905350600a85611d709190613179565b9450611cc8565b8093505050505b919050565b611d8d8383611df1565b611d9a6000848484611a3f565b611dd9576040517f08c379a0000000000000000000000000000000000000000000000000000000008152600401611dd090612e44565b60405180910390fd5b505050565b600080823b905060008111915050919050565b600073ffffffffffffffffffffffffffffffffffffffff168273ffffffffffffffffffffffffffffffffffffffff161415611e61576040517f08c379a0000000000000000000000000000000000000000000000000000000008152600401611e5890612f84565b60405180910390fd5b611e6a81610dbe565b15611eaa576040517f08c379a0000000000000000000000000000000000000000000000000000000008152600401611ea190612e64565b60405180910390fd5b611eb660008383611a3a565b6001600360008473ffffffffffffffffffffffffffffffffffffffff1673ffffffffffffffffffffffffffffffffffffffff1681526020019081526020016000206000828254611f069190613123565b92505081905550816002600083815260200190815260200160002060006101000a81548173ffffffffffffffffffffffffffffffffffffffff021916908373ffffffffffffffffffffffffffffffffffffffff160217905550808273ffffffffffffffffffffffffffffffffffffffff16600073ffffffffffffffffffffffffffffffffffffffff167fddf252ad1be2c89b69c2b068fc378daa952ba7f163c4a11628f55a4df523b3ef60405160405180910390a45050565b828054611fcb90613318565b90600052602060002090601f016020900481019282611fed5760008555612034565b82601f1061200657805160ff1916838001178555612034565b82800160010185558215612034579182015b82811115612033578251825591602001919060010190612018565b5b5090506120419190612045565b5090565b5b8082111561205e576000816000905550600101612046565b5090565b6000612075612070846130b0565b61307f565b90508281526020810184848401111561208d57600080fd5b6120988482856132ac565b509392505050565b6000813590506120af81613491565b92915050565b6000813590506120c4816134a8565b92915050565b6000813590506120d9816134bf565b92915050565b6000815190506120ee816134bf565b92915050565b600082601f83011261210557600080fd5b8135612115848260208601612062565b91505092915050565b60008135905061212d816134d6565b92915050565b60006020828403121561214557600080fd5b6000612153848285016120a0565b91505092915050565b6000806040838503121561216f57600080fd5b600061217d858286016120a0565b925050602061218e858286016120a0565b9150509250929050565b6000806000606084860312156121ad57600080fd5b60006121bb868287016120a0565b93505060206121cc868287016120a0565b92505060406121dd8682870161211e565b9150509250925092565b600080600080608085870312156121fd57600080fd5b600061220b878288016120a0565b945050602061221c878288016120a0565b935050604061222d8782880161211e565b925050606085013567ffffffffffffffff81111561224a57600080fd5b612256878288016120f4565b91505092959194509250565b6000806040838503121561227557600080fd5b6000612283858286016120a0565b9250506020612294858286016120b5565b9150509250929050565b600080604083850312156122b157600080fd5b60006122bf858286016120a0565b92505060206122d08582860161211e565b9150509250929050565b6000602082840312156122ec57600080fd5b60006122fa848285016120ca565b91505092915050565b60006020828403121561231557600080fd5b6000612323848285016120df565b91505092915050565b60006020828403121561233e57600080fd5b600061234c8482850161211e565b91505092915050565b61235e81613238565b82525050565b61236d8161324a565b82525050565b600061237e826130e0565b61238881856130f6565b93506123988185602086016132bb565b6123a181613480565b840191505092915050565b60006123b7826130eb565b6123c18185613107565b93506123d18185602086016132bb565b6123da81613480565b840191505092915050565b60006123f0826130eb565b6123fa8185613118565b935061240a8185602086016132bb565b80840191505092915050565b6000612423603283613107565b91507f4552433732313a207472616e7366657220746f206e6f6e20455243373231526560008301527f63656976657220696d706c656d656e74657200000000000000000000000000006020830152604082019050919050565b6000612489601c83613107565b91507f4552433732313a20746f6b656e20616c7265616479206d696e746564000000006000830152602082019050919050565b60006124c9603483613107565b91507f4e6f206d6f7265207468616e20736576656e20616c706861206d75726d75726160008301527f74696f6e73206d6179206265206d696e7465642e0000000000000000000000006020830152604082019050919050565b600061252f606483613118565b91507f222c2022696d616765223a202268747470733a2f2f676174657761792e70696e60008301527f6174612e636c6f75642f697066732f516d51784b41723559476b73736d464a4660208301527f6661486f454471315365756754737262583753573368667545387258422f616c60408301527f7068615f000000000000000000000000000000000000000000000000000000006060830152606482019050919050565b60006125e1602483613107565b91507f4552433732313a207472616e7366657220746f20746865207a65726f2061646460008301527f72657373000000000000000000000000000000000000000000000000000000006020830152604082019050919050565b6000612647601983613107565b91507f4552433732313a20617070726f766520746f2063616c6c6572000000000000006000830152602082019050919050565b6000612687602c83613107565b91507f4552433732313a206f70657261746f7220717565727920666f72206e6f6e657860008301527f697374656e7420746f6b656e00000000000000000000000000000000000000006020830152604082019050919050565b60006126ed603883613107565b91507f4552433732313a20617070726f76652063616c6c6572206973206e6f74206f7760008301527f6e6572206e6f7220617070726f76656420666f7220616c6c00000000000000006020830152604082019050919050565b6000612753602a83613107565b91507f4552433732313a2062616c616e636520717565727920666f7220746865207a6560008301527f726f2061646472657373000000000000000000000000000000000000000000006020830152604082019050919050565b60006127b9602983613107565b91507f4552433732313a206f776e657220717565727920666f72206e6f6e657869737460008301527f656e7420746f6b656e00000000000000000000000000000000000000000000006020830152604082019050919050565b600061281f602e83613107565b91507f45524337323155524953746f726167653a2055524920736574206f66206e6f6e60008301527f6578697374656e7420746f6b656e0000000000000000000000000000000000006020830152604082019050919050565b6000612885602083613107565b91507f4552433732313a206d696e7420746f20746865207a65726f20616464726573736000830152602082019050919050565b60006128c5603183613107565b91507f45524337323155524953746f726167653a2055524920717565727920666f722060008301527f6e6f6e6578697374656e7420746f6b656e0000000000000000000000000000006020830152604082019050919050565b600061292b602c83613107565b91507f4552433732313a20617070726f76656420717565727920666f72206e6f6e657860008301527f697374656e7420746f6b656e00000000000000000000000000000000000000006020830152604082019050919050565b6000612991601e83613118565b91507f7b226e616d65223a20224d75726d75726174696f6e7320416c706861202300006000830152601e82019050919050565b60006129d1602983613107565b91507f4552433732313a207472616e73666572206f6620746f6b656e2074686174206960008301527f73206e6f74206f776e00000000000000000000000000000000000000000000006020830152604082019050919050565b6000612a37602f83613107565b91507f4552433732314d657461646174613a2055524920717565727920666f72206e6f60008301527f6e6578697374656e7420746f6b656e00000000000000000000000000000000006020830152604082019050919050565b6000612a9d602783613118565b91507f222c20226465736372697074696f6e223a20224d75726d75726174696f6e732060008301527f416c7068612023000000000000000000000000000000000000000000000000006020830152602782019050919050565b6000612b03600683613118565b91507f2e706e67227d00000000000000000000000000000000000000000000000000006000830152600682019050919050565b6000612b43602183613107565b91507f4552433732313a20617070726f76616c20746f2063757272656e74206f776e6560008301527f72000000000000000000000000000000000000000000000000000000000000006020830152604082019050919050565b6000612ba9601d83613118565b91507f646174613a6170706c69636174696f6e2f6a736f6e3b6261736536342c0000006000830152601d82019050919050565b6000612be9603183613107565b91507f4552433732313a207472616e736665722063616c6c6572206973206e6f74206f60008301527f776e6572206e6f7220617070726f7665640000000000000000000000000000006020830152604082019050919050565b612c4b816132a2565b82525050565b6000612c5d82856123e5565b9150612c6982846123e5565b91508190509392505050565b6000612c8082612984565b9150612c8c82866123e5565b9150612c9782612a90565b9150612ca382856123e5565b9150612cae82612522565b9150612cba82846123e5565b9150612cc582612af6565b9150819050949350505050565b6000612cdd82612b9c565b9150612ce982846123e5565b915081905092915050565b6000602082019050612d096000830184612355565b92915050565b6000608082019050612d246000830187612355565b612d316020830186612355565b612d3e6040830185612c42565b8181036060830152612d508184612373565b905095945050505050565b6000604082019050612d706000830185612355565b612d7d6020830184612c42565b9392505050565b6000602082019050612d996000830184612364565b92915050565b60006020820190508181036000830152612db981846123ac565b905092915050565b60006040820190508181036000830152612ddb81856123ac565b9050612dea6020830184612c42565b9392505050565b60006080820190508181036000830152612e0b81876123ac565b9050612e1a6020830186612c42565b612e276040830185612355565b8181036060830152612e3981846123ac565b905095945050505050565b60006020820190508181036000830152612e5d81612416565b9050919050565b60006020820190508181036000830152612e7d8161247c565b9050919050565b60006020820190508181036000830152612e9d816124bc565b9050919050565b60006020820190508181036000830152612ebd816125d4565b9050919050565b60006020820190508181036000830152612edd8161263a565b9050919050565b60006020820190508181036000830152612efd8161267a565b9050919050565b60006020820190508181036000830152612f1d816126e0565b9050919050565b60006020820190508181036000830152612f3d81612746565b9050919050565b60006020820190508181036000830152612f5d816127ac565b9050919050565b60006020820190508181036000830152612f7d81612812565b9050919050565b60006020820190508181036000830152612f9d81612878565b9050919050565b60006020820190508181036000830152612fbd816128b8565b9050919050565b60006020820190508181036000830152612fdd8161291e565b9050919050565b60006020820190508181036000830152612ffd816129c4565b9050919050565b6000602082019050818103600083015261301d81612a2a565b9050919050565b6000602082019050818103600083015261303d81612b36565b9050919050565b6000602082019050818103600083015261305d81612bdc565b9050919050565b60006020820190506130796000830184612c42565b92915050565b6000604051905081810181811067ffffffffffffffff821117156130a6576130a5613451565b5b8060405250919050565b600067ffffffffffffffff8211156130cb576130ca613451565b5b601f19601f8301169050602081019050919050565b600081519050919050565b600081519050919050565b600082825260208201905092915050565b600082825260208201905092915050565b600081905092915050565b600061312e826132a2565b9150613139836132a2565b9250827fffffffffffffffffffffffffffffffffffffffffffffffffffffffffffffffff0382111561316e5761316d6133c4565b5b828201905092915050565b6000613184826132a2565b915061318f836132a2565b92508261319f5761319e6133f3565b5b828204905092915050565b60006131b5826132a2565b91506131c0836132a2565b9250817fffffffffffffffffffffffffffffffffffffffffffffffffffffffffffffffff04831182151516156131f9576131f86133c4565b5b828202905092915050565b600061320f826132a2565b915061321a836132a2565b92508282101561322d5761322c6133c4565b5b828203905092915050565b600061324382613282565b9050919050565b60008115159050919050565b60007fffffffff0000000000000000000000000000000000000000000000000000000082169050919050565b600073ffffffffffffffffffffffffffffffffffffffff82169050919050565b6000819050919050565b82818337600083830152505050565b60005b838110156132d95780820151818401526020810190506132be565b838111156132e8576000848401525b50505050565b60006132f9826132a2565b9150600082141561330d5761330c6133c4565b5b600182039050919050565b6000600282049050600182168061333057607f821691505b6020821081141561334457613343613422565b5b50919050565b6000613355826132a2565b91507fffffffffffffffffffffffffffffffffffffffffffffffffffffffffffffffff821415613388576133876133c4565b5b600182019050919050565b600061339e826132a2565b91506133a9836132a2565b9250826133b9576133b86133f3565b5b828206905092915050565b7f4e487b7100000000000000000000000000000000000000000000000000000000600052601160045260246000fd5b7f4e487b7100000000000000000000000000000000000000000000000000000000600052601260045260246000fd5b7f4e487b7100000000000000000000000000000000000000000000000000000000600052602260045260246000fd5b7f4e487b7100000000000000000000000000000000000000000000000000000000600052604160045260246000fd5b6000601f19601f8301169050919050565b61349a81613238565b81146134a557600080fd5b50565b6134b18161324a565b81146134bc57600080fd5b50565b6134c881613256565b81146134d357600080fd5b50565b6134df816132a2565b81146134ea57600080fd5b5056fe416e204e4654207769746820494420257320686173206265656e206d696e74656420746f2025732077697468206d657461646174612025734142434445464748494a4b4c4d4e4f505152535455565758595a6162636465666768696a6b6c6d6e6f707172737475767778797a303132333435363738392b2fa2646970667358221220458514679faa3df4275af428c04d187a080d856f5cc26e3e3b8e2f6ea73c39f464736f6c634300080000334c6f6164696e67204d75726d75726174696f6e20416c70686120636f6e74726163742e",
  "linkReferences": {},
  "deployedLinkReferences": {}
}