{
    "_format": "hh-sol-artifact-1",
    "contractName": "MurmurationsAlpha",
    "sourceName": "contracts/MurmurationsAlpha.sol",
    "abi": [
        {
            "inputs": [],
            "stateMutability": "nonpayable",
            "type": "constructor"
        },
        {
            "anonymous": false,
            "inputs": [
                {
                    "indexed": true,
                    "internalType": "address",
                    "name": "owner",
                    "type": "address"
                },
                {
                    "indexed": true,
                    "internalType": "address",
                    "name": "approved",
                    "type": "address"
                },
                {
                    "indexed": true,
                    "internalType": "uint256",
                    "name": "tokenId",
                    "type": "uint256"
                }
            ],
            "name": "Approval",
            "type": "event"
        },
        {
            "anonymous": false,
            "inputs": [
                {
                    "indexed": true,
                    "internalType": "address",
                    "name": "owner",
                    "type": "address"
                },
                {
                    "indexed": true,
                    "internalType": "address",
                    "name": "operator",
                    "type": "address"
                },
                {
                    "indexed": false,
                    "internalType": "bool",
                    "name": "approved",
                    "type": "bool"
                }
            ],
            "name": "ApprovalForAll",
            "type": "event"
        },
        {
            "anonymous": false,
            "inputs": [
                {
                    "indexed": true,
                    "internalType": "address",
                    "name": "from",
                    "type": "address"
                },
                {
                    "indexed": true,
                    "internalType": "address",
                    "name": "to",
                    "type": "address"
                },
                {
                    "indexed": true,
                    "internalType": "uint256",
                    "name": "tokenId",
                    "type": "uint256"
                }
            ],
            "name": "Transfer",
            "type": "event"
        },
        {
            "inputs": [
                {
                    "internalType": "address",
                    "name": "to",
                    "type": "address"
                },
                {
                    "internalType": "uint256",
                    "name": "tokenId",
                    "type": "uint256"
                }
            ],
            "name": "approve",
            "outputs": [],
            "stateMutability": "nonpayable",
            "type": "function"
        },
        {
            "inputs": [
                {
                    "internalType": "address",
                    "name": "owner",
                    "type": "address"
                }
            ],
            "name": "balanceOf",
            "outputs": [
                {
                    "internalType": "uint256",
                    "name": "",
                    "type": "uint256"
                }
            ],
            "stateMutability": "view",
            "type": "function"
        },
        {
            "inputs": [
                {
                    "internalType": "uint256",
                    "name": "tokenId",
                    "type": "uint256"
                }
            ],
            "name": "getApproved",
            "outputs": [
                {
                    "internalType": "address",
                    "name": "",
                    "type": "address"
                }
            ],
            "stateMutability": "view",
            "type": "function"
        },
        {
            "inputs": [
                {
                    "internalType": "address",
                    "name": "owner",
                    "type": "address"
                },
                {
                    "internalType": "address",
                    "name": "operator",
                    "type": "address"
                }
            ],
            "name": "isApprovedForAll",
            "outputs": [
                {
                    "internalType": "bool",
                    "name": "",
                    "type": "bool"
                }
            ],
            "stateMutability": "view",
            "type": "function"
        },
        {
            "inputs": [],
            "name": "mintMurmuration",
            "outputs": [],
            "stateMutability": "nonpayable",
            "type": "function"
        },
        {
            "inputs": [],
            "name": "name",
            "outputs": [
                {
                    "internalType": "string",
                    "name": "",
                    "type": "string"
                }
            ],
            "stateMutability": "view",
            "type": "function"
        },
        {
            "inputs": [
                {
                    "internalType": "uint256",
                    "name": "tokenId",
                    "type": "uint256"
                }
            ],
            "name": "ownerOf",
            "outputs": [
                {
                    "internalType": "address",
                    "name": "",
                    "type": "address"
                }
            ],
            "stateMutability": "view",
            "type": "function"
        },
        {
            "inputs": [
                {
                    "internalType": "address",
                    "name": "from",
                    "type": "address"
                },
                {
                    "internalType": "address",
                    "name": "to",
                    "type": "address"
                },
                {
                    "internalType": "uint256",
                    "name": "tokenId",
                    "type": "uint256"
                }
            ],
            "name": "safeTransferFrom",
            "outputs": [],
            "stateMutability": "nonpayable",
            "type": "function"
        },
        {
            "inputs": [
                {
                    "internalType": "address",
                    "name": "from",
                    "type": "address"
                },
                {
                    "internalType": "address",
                    "name": "to",
                    "type": "address"
                },
                {
                    "internalType": "uint256",
                    "name": "tokenId",
                    "type": "uint256"
                },
                {
                    "internalType": "bytes",
                    "name": "_data",
                    "type": "bytes"
                }
            ],
            "name": "safeTransferFrom",
            "outputs": [],
            "stateMutability": "nonpayable",
            "type": "function"
        },
        {
            "inputs": [
                {
                    "internalType": "address",
                    "name": "operator",
                    "type": "address"
                },
                {
                    "internalType": "bool",
                    "name": "approved",
                    "type": "bool"
                }
            ],
            "name": "setApprovalForAll",
            "outputs": [],
            "stateMutability": "nonpayable",
            "type": "function"
        },
        {
            "inputs": [
                {
                    "internalType": "bytes4",
                    "name": "interfaceId",
                    "type": "bytes4"
                }
            ],
            "name": "supportsInterface",
            "outputs": [
                {
                    "internalType": "bool",
                    "name": "",
                    "type": "bool"
                }
            ],
            "stateMutability": "view",
            "type": "function"
        },
        {
            "inputs": [],
            "name": "symbol",
            "outputs": [
                {
                    "internalType": "string",
                    "name": "",
                    "type": "string"
                }
            ],
            "stateMutability": "view",
            "type": "function"
        },
        {
            "inputs": [
                {
                    "internalType": "uint256",
                    "name": "tokenId",
                    "type": "uint256"
                }
            ],
            "name": "tokenURI",
            "outputs": [
                {
                    "internalType": "string",
                    "name": "",
                    "type": "string"
                }
            ],
            "stateMutability": "view",
            "type": "function"
        },
        {
            "inputs": [
                {
                    "internalType": "address",
                    "name": "from",
                    "type": "address"
                },
                {
                    "internalType": "address",
                    "name": "to",
                    "type": "address"
                },
                {
                    "internalType": "uint256",
                    "name": "tokenId",
                    "type": "uint256"
                }
            ],
            "name": "transferFrom",
            "outputs": [],
            "stateMutability": "nonpayable",
            "type": "function"
        }
    ],
    "bytecode": "0x60806040523480156200001157600080fd5b506040518060400160405280600b81526020017f4d75726d75726174696f6e0000000000000000000000000000000000000000008152506040518060400160405280600681526020017f4d55524d55520000000000000000000000000000000000000000000000000000815250816000908051906020019062000096929190620001b3565b508060019080519060200190620000af929190620001b3565b505050620000e16040518060600160405280602181526020016200369060219139620000e760201b62000b8d1760201c565b62000390565b6200018781604051602401620000fe9190620002a4565b6040516020818303038152906040527f41304fac000000000000000000000000000000000000000000000000000000007bffffffffffffffffffffffffffffffffffffffffffffffffffffffff19166020820180517bffffffffffffffffffffffffffffffffffffffffffffffffffffffff83818316178352505050506200018a60201b60201c565b50565b60008151905060006a636f6e736f6c652e6c6f679050602083016000808483855afa5050505050565b828054620001c1906200031a565b90600052602060002090601f016020900481019282620001e5576000855562000231565b82601f106200020057805160ff191683800117855562000231565b8280016001018555821562000231579182015b828111156200023057825182559160200191906001019062000213565b5b50905062000240919062000244565b5090565b5b808211156200025f57600081600090555060010162000245565b5090565b60006200027082620002c8565b6200027c8185620002d3565b93506200028e818560208601620002e4565b62000299816200037f565b840191505092915050565b60006020820190508181036000830152620002c0818462000263565b905092915050565b600081519050919050565b600082825260208201905092915050565b60005b8381101562000304578082015181840152602081019050620002e7565b8381111562000314576000848401525b50505050565b600060028204905060018216806200033357607f821691505b602082108114156200034a576200034962000350565b5b50919050565b7f4e487b7100000000000000000000000000000000000000000000000000000000600052602260045260246000fd5b6000601f19601f8301169050919050565b6132f080620003a06000396000f3fe608060405234801561001057600080fd5b50600436106100ea5760003560e01c806370a082311161008c578063b88d4fde11610066578063b88d4fde1461025b578063c87b56dd14610277578063d1496a36146102a7578063e985e9c5146102b1576100ea565b806370a08231146101f157806395d89b4114610221578063a22cb4651461023f576100ea565b8063095ea7b3116100c8578063095ea7b31461016d57806323b872dd1461018957806342842e0e146101a55780636352211e146101c1576100ea565b806301ffc9a7146100ef57806306fdde031461011f578063081812fc1461013d575b600080fd5b61010960048036038101906101049190612110565b6102e1565b6040516101169190612b2b565b60405180910390f35b6101276103c3565b6040516101349190612b46565b60405180910390f35b61015760048036038101906101529190612162565b610455565b6040516101649190612ac4565b60405180910390f35b610187600480360381019061018291906120d4565b6104da565b005b6101a3600480360381019061019e9190611fce565b6105f2565b005b6101bf60048036038101906101ba9190611fce565b610652565b005b6101db60048036038101906101d69190612162565b610672565b6040516101e89190612ac4565b60405180910390f35b61020b60048036038101906102069190611f69565b610724565b6040516102189190612dbb565b60405180910390f35b6102296107dc565b6040516102369190612b46565b60405180910390f35b61025960048036038101906102549190612098565b61086e565b005b6102756004803603810190610270919061201d565b610884565b005b610291600480360381019061028c9190612162565b6108e6565b60405161029e9190612b46565b60405180910390f35b6102af610a38565b005b6102cb60048036038101906102c69190611f92565b610af9565b6040516102d89190612b2b565b60405180910390f35b60007f80ac58cd000000000000000000000000000000000000000000000000000000007bffffffffffffffffffffffffffffffffffffffffffffffffffffffff1916827bffffffffffffffffffffffffffffffffffffffffffffffffffffffff191614806103ac57507f5b5e139f000000000000000000000000000000000000000000000000000000007bffffffffffffffffffffffffffffffffffffffffffffffffffffffff1916827bffffffffffffffffffffffffffffffffffffffffffffffffffffffff1916145b806103bc57506103bb82610c26565b5b9050919050565b6060600080546103d29061306f565b80601f01602080910402602001604051908101604052809291908181526020018280546103fe9061306f565b801561044b5780601f106104205761010080835404028352916020019161044b565b820191906000526020600020905b81548152906001019060200180831161042e57829003601f168201915b5050505050905090565b600061046082610c90565b61049f576040517f08c379a000000000000000000000000000000000000000000000000000000000815260040161049690612d1b565b60405180910390fd5b6004600083815260200190815260200160002060009054906101000a900473ffffffffffffffffffffffffffffffffffffffff169050919050565b60006104e582610672565b90508073ffffffffffffffffffffffffffffffffffffffff168373ffffffffffffffffffffffffffffffffffffffff161415610556576040517f08c379a000000000000000000000000000000000000000000000000000000000815260040161054d90612d7b565b60405180910390fd5b8073ffffffffffffffffffffffffffffffffffffffff16610575610cfc565b73ffffffffffffffffffffffffffffffffffffffff1614806105a457506105a38161059e610cfc565b610af9565b5b6105e3576040517f08c379a00000000000000000000000000000000000000000000000000000000081526004016105da90612c5b565b60405180910390fd5b6105ed8383610d04565b505050565b6106036105fd610cfc565b82610dbd565b610642576040517f08c379a000000000000000000000000000000000000000000000000000000000815260040161063990612d9b565b60405180910390fd5b61064d838383610e9b565b505050565b61066d83838360405180602001604052806000815250610884565b505050565b6000806002600084815260200190815260200160002060009054906101000a900473ffffffffffffffffffffffffffffffffffffffff169050600073ffffffffffffffffffffffffffffffffffffffff168173ffffffffffffffffffffffffffffffffffffffff16141561071b576040517f08c379a000000000000000000000000000000000000000000000000000000000815260040161071290612c9b565b60405180910390fd5b80915050919050565b60008073ffffffffffffffffffffffffffffffffffffffff168273ffffffffffffffffffffffffffffffffffffffff161415610795576040517f08c379a000000000000000000000000000000000000000000000000000000000815260040161078c90612c7b565b60405180910390fd5b600360008373ffffffffffffffffffffffffffffffffffffffff1673ffffffffffffffffffffffffffffffffffffffff168152602001908152602001600020549050919050565b6060600180546107eb9061306f565b80601f01602080910402602001604051908101604052809291908181526020018280546108179061306f565b80156108645780601f1061083957610100808354040283529160200191610864565b820191906000526020600020905b81548152906001019060200180831161084757829003601f168201915b5050505050905090565b610880610879610cfc565b83836110f7565b5050565b61089561088f610cfc565b83610dbd565b6108d4576040517f08c379a00000000000000000000000000000000000000000000000000000000081526004016108cb90612d9b565b60405180910390fd5b6108e084848484611264565b50505050565b60606108f182610c90565b610930576040517f08c379a000000000000000000000000000000000000000000000000000000000815260040161092790612cfb565b60405180910390fd5b60006006600084815260200190815260200160002080546109509061306f565b80601f016020809104026020016040519081016040528092919081815260200182805461097c9061306f565b80156109c95780601f1061099e576101008083540402835291602001916109c9565b820191906000526020600020905b8154815290600101906020018083116109ac57829003601f168201915b5050505050905060006109da6112c0565b90506000815114156109f0578192505050610a33565b600082511115610a25578082604051602001610a0d929190612a21565b60405160208183030381529060405292505050610a33565b610a2e846112d7565b925050505b919050565b6000610a44600761137e565b9050610a50338261138c565b6000610a96610a5e836113aa565b610a67846113aa565b610a70856113aa565b604051602001610a8293929190612a45565b60405160208183030381529060405261155d565b9050600081604051602001610aab9190612aa2565b6040516020818303038152906040529050610ac6838261171b565b610aea6040518060600160405280603681526020016132856036913984338461178f565b610af46007611831565b505050565b6000600560008473ffffffffffffffffffffffffffffffffffffffff1673ffffffffffffffffffffffffffffffffffffffff16815260200190815260200160002060008373ffffffffffffffffffffffffffffffffffffffff1673ffffffffffffffffffffffffffffffffffffffff16815260200190815260200160002060009054906101000a900460ff16905092915050565b610c2381604051602401610ba19190612b46565b6040516020818303038152906040527f41304fac000000000000000000000000000000000000000000000000000000007bffffffffffffffffffffffffffffffffffffffffffffffffffffffff19166020820180517bffffffffffffffffffffffffffffffffffffffffffffffffffffffff8381831617835250505050611847565b50565b60007f01ffc9a7000000000000000000000000000000000000000000000000000000007bffffffffffffffffffffffffffffffffffffffffffffffffffffffff1916827bffffffffffffffffffffffffffffffffffffffffffffffffffffffff1916149050919050565b60008073ffffffffffffffffffffffffffffffffffffffff166002600084815260200190815260200160002060009054906101000a900473ffffffffffffffffffffffffffffffffffffffff1673ffffffffffffffffffffffffffffffffffffffff1614159050919050565b600033905090565b816004600083815260200190815260200160002060006101000a81548173ffffffffffffffffffffffffffffffffffffffff021916908373ffffffffffffffffffffffffffffffffffffffff160217905550808273ffffffffffffffffffffffffffffffffffffffff16610d7783610672565b73ffffffffffffffffffffffffffffffffffffffff167f8c5be1e5ebec7d5bd14f71427d1e84f3dd0314c0f7b2291e5b200ac8c7c3b92560405160405180910390a45050565b6000610dc882610c90565b610e07576040517f08c379a0000000000000000000000000000000000000000000000000000000008152600401610dfe90612c3b565b60405180910390fd5b6000610e1283610672565b90508073ffffffffffffffffffffffffffffffffffffffff168473ffffffffffffffffffffffffffffffffffffffff161480610e8157508373ffffffffffffffffffffffffffffffffffffffff16610e6984610455565b73ffffffffffffffffffffffffffffffffffffffff16145b80610e925750610e918185610af9565b5b91505092915050565b8273ffffffffffffffffffffffffffffffffffffffff16610ebb82610672565b73ffffffffffffffffffffffffffffffffffffffff1614610f11576040517f08c379a0000000000000000000000000000000000000000000000000000000008152600401610f0890612d3b565b60405180910390fd5b600073ffffffffffffffffffffffffffffffffffffffff168273ffffffffffffffffffffffffffffffffffffffff161415610f81576040517f08c379a0000000000000000000000000000000000000000000000000000000008152600401610f7890612bfb565b60405180910390fd5b610f8c838383611870565b610f97600082610d04565b6001600360008573ffffffffffffffffffffffffffffffffffffffff1673ffffffffffffffffffffffffffffffffffffffff1681526020019081526020016000206000828254610fe79190612f5b565b925050819055506001600360008473ffffffffffffffffffffffffffffffffffffffff1673ffffffffffffffffffffffffffffffffffffffff168152602001908152602001600020600082825461103e9190612e7a565b92505081905550816002600083815260200190815260200160002060006101000a81548173ffffffffffffffffffffffffffffffffffffffff021916908373ffffffffffffffffffffffffffffffffffffffff160217905550808273ffffffffffffffffffffffffffffffffffffffff168473ffffffffffffffffffffffffffffffffffffffff167fddf252ad1be2c89b69c2b068fc378daa952ba7f163c4a11628f55a4df523b3ef60405160405180910390a4505050565b8173ffffffffffffffffffffffffffffffffffffffff168373ffffffffffffffffffffffffffffffffffffffff161415611166576040517f08c379a000000000000000000000000000000000000000000000000000000000815260040161115d90612c1b565b60405180910390fd5b80600560008573ffffffffffffffffffffffffffffffffffffffff1673ffffffffffffffffffffffffffffffffffffffff16815260200190815260200160002060008473ffffffffffffffffffffffffffffffffffffffff1673ffffffffffffffffffffffffffffffffffffffff16815260200190815260200160002060006101000a81548160ff0219169083151502179055508173ffffffffffffffffffffffffffffffffffffffff168373ffffffffffffffffffffffffffffffffffffffff167f17307eab39ab6107e8899845ad3d59bd9653f200f220920489ca2b5937696c31836040516112579190612b2b565b60405180910390a3505050565b61126f848484610e9b565b61127b84848484611875565b6112ba576040517f08c379a00000000000000000000000000000000000000000000000000000000081526004016112b190612bbb565b60405180910390fd5b50505050565b606060405180602001604052806000815250905090565b60606112e282610c90565b611321576040517f08c379a000000000000000000000000000000000000000000000000000000000815260040161131890612d5b565b60405180910390fd5b600061132b6112c0565b9050600081511161134b5760405180602001604052806000815250611376565b8061135584611a0c565b604051602001611366929190612a21565b6040516020818303038152906040525b915050919050565b600081600001549050919050565b6113a6828260405180602001604052806000815250611bb9565b5050565b606060008214156113f2576040518060400160405280600181526020017f30000000000000000000000000000000000000000000000000000000000000008152509050611558565b600082905060005b6000821461142457808061140d906130a1565b915050600a8261141d9190612ed0565b91506113fa565b60008167ffffffffffffffff811115611466577f4e487b7100000000000000000000000000000000000000000000000000000000600052604160045260246000fd5b6040519080825280601f01601f1916602001820160405280156114985781602001600182028036833780820191505090505b50905060008290508593505b6000841461155057600a846114b991906130ea565b60306114c59190612e7a565b60f81b82826114d390613045565b9250828151811061150d577f4e487b7100000000000000000000000000000000000000000000000000000000600052603260045260246000fd5b60200101907effffffffffffffffffffffffffffffffffffffffffffffffffffffffffffff1916908160001a905350600a846115499190612ed0565b93506114a4565b819450505050505b919050565b606060008251905060008114156115865760405180602001604052806000815250915050611716565b600060036002836115979190612e7a565b6115a19190612ed0565b60046115ad9190612f01565b905060006020826115be9190612e7a565b67ffffffffffffffff8111156115fd577f4e487b7100000000000000000000000000000000000000000000000000000000600052604160045260246000fd5b6040519080825280601f01601f19166020018201604052801561162f5781602001600182028036833780820191505090505b5090506000604051806060016040528060408152602001613245604091399050600181016020830160005b868110156116d35760038101905062ffffff818a015116603f8160121c168401518060081b905060ff603f83600c1c1686015116810190508060081b905060ff603f8360061c1686015116810190508060081b905060ff603f831686015116810190508060e01b9050808452600484019350505061165a565b5060038606600181146116ed57600281146116fd57611708565b613d3d60f01b6002830352611708565b603d60f81b60018303525b508484525050819450505050505b919050565b61172482610c90565b611763576040517f08c379a000000000000000000000000000000000000000000000000000000000815260040161175a90612cbb565b60405180910390fd5b8060066000848152602001908152602001600020908051906020019061178a929190611df5565b505050565b61182b848484846040516024016117a99493929190612b68565b6040516020818303038152906040527f3254c2e8000000000000000000000000000000000000000000000000000000007bffffffffffffffffffffffffffffffffffffffffffffffffffffffff19166020820180517bffffffffffffffffffffffffffffffffffffffffffffffffffffffff8381831617835250505050611847565b50505050565b6001816000016000828254019250508190555050565b60008151905060006a636f6e736f6c652e6c6f679050602083016000808483855afa5050505050565b505050565b60006118968473ffffffffffffffffffffffffffffffffffffffff16611c14565b156119ff578373ffffffffffffffffffffffffffffffffffffffff1663150b7a026118bf610cfc565b8786866040518563ffffffff1660e01b81526004016118e19493929190612adf565b602060405180830381600087803b1580156118fb57600080fd5b505af192505050801561192c57506040513d601f19601f820116820180604052508101906119299190612139565b60015b6119af573d806000811461195c576040519150601f19603f3d011682016040523d82523d6000602084013e611961565b606091505b506000815114156119a7576040517f08c379a000000000000000000000000000000000000000000000000000000000815260040161199e90612bbb565b60405180910390fd5b805181602001fd5b63150b7a0260e01b7bffffffffffffffffffffffffffffffffffffffffffffffffffffffff1916817bffffffffffffffffffffffffffffffffffffffffffffffffffffffff191614915050611a04565b600190505b949350505050565b60606000821415611a54576040518060400160405280600181526020017f30000000000000000000000000000000000000000000000000000000000000008152509050611bb4565b600082905060005b60008214611a86578080611a6f906130a1565b915050600a82611a7f9190612ed0565b9150611a5c565b60008167ffffffffffffffff811115611ac8577f4e487b7100000000000000000000000000000000000000000000000000000000600052604160045260246000fd5b6040519080825280601f01601f191660200182016040528015611afa5781602001600182028036833780820191505090505b5090505b60008514611bad57600182611b139190612f5b565b9150600a85611b2291906130ea565b6030611b2e9190612e7a565b60f81b818381518110611b6a577f4e487b7100000000000000000000000000000000000000000000000000000000600052603260045260246000fd5b60200101907effffffffffffffffffffffffffffffffffffffffffffffffffffffffffffff1916908160001a905350600a85611ba69190612ed0565b9450611afe565b8093505050505b919050565b611bc38383611c27565b611bd06000848484611875565b611c0f576040517f08c379a0000000000000000000000000000000000000000000000000000000008152600401611c0690612bbb565b60405180910390fd5b505050565b600080823b905060008111915050919050565b600073ffffffffffffffffffffffffffffffffffffffff168273ffffffffffffffffffffffffffffffffffffffff161415611c97576040517f08c379a0000000000000000000000000000000000000000000000000000000008152600401611c8e90612cdb565b60405180910390fd5b611ca081610c90565b15611ce0576040517f08c379a0000000000000000000000000000000000000000000000000000000008152600401611cd790612bdb565b60405180910390fd5b611cec60008383611870565b6001600360008473ffffffffffffffffffffffffffffffffffffffff1673ffffffffffffffffffffffffffffffffffffffff1681526020019081526020016000206000828254611d3c9190612e7a565b92505081905550816002600083815260200190815260200160002060006101000a81548173ffffffffffffffffffffffffffffffffffffffff021916908373ffffffffffffffffffffffffffffffffffffffff160217905550808273ffffffffffffffffffffffffffffffffffffffff16600073ffffffffffffffffffffffffffffffffffffffff167fddf252ad1be2c89b69c2b068fc378daa952ba7f163c4a11628f55a4df523b3ef60405160405180910390a45050565b828054611e019061306f565b90600052602060002090601f016020900481019282611e235760008555611e6a565b82601f10611e3c57805160ff1916838001178555611e6a565b82800160010185558215611e6a579182015b82811115611e69578251825591602001919060010190611e4e565b5b509050611e779190611e7b565b5090565b5b80821115611e94576000816000905550600101611e7c565b5090565b6000611eab611ea684612e07565b612dd6565b905082815260208101848484011115611ec357600080fd5b611ece848285613003565b509392505050565b600081359050611ee5816131e8565b92915050565b600081359050611efa816131ff565b92915050565b600081359050611f0f81613216565b92915050565b600081519050611f2481613216565b92915050565b600082601f830112611f3b57600080fd5b8135611f4b848260208601611e98565b91505092915050565b600081359050611f638161322d565b92915050565b600060208284031215611f7b57600080fd5b6000611f8984828501611ed6565b91505092915050565b60008060408385031215611fa557600080fd5b6000611fb385828601611ed6565b9250506020611fc485828601611ed6565b9150509250929050565b600080600060608486031215611fe357600080fd5b6000611ff186828701611ed6565b935050602061200286828701611ed6565b925050604061201386828701611f54565b9150509250925092565b6000806000806080858703121561203357600080fd5b600061204187828801611ed6565b945050602061205287828801611ed6565b935050604061206387828801611f54565b925050606085013567ffffffffffffffff81111561208057600080fd5b61208c87828801611f2a565b91505092959194509250565b600080604083850312156120ab57600080fd5b60006120b985828601611ed6565b92505060206120ca85828601611eeb565b9150509250929050565b600080604083850312156120e757600080fd5b60006120f585828601611ed6565b925050602061210685828601611f54565b9150509250929050565b60006020828403121561212257600080fd5b600061213084828501611f00565b91505092915050565b60006020828403121561214b57600080fd5b600061215984828501611f15565b91505092915050565b60006020828403121561217457600080fd5b600061218284828501611f54565b91505092915050565b61219481612f8f565b82525050565b6121a381612fa1565b82525050565b60006121b482612e37565b6121be8185612e4d565b93506121ce818560208601613012565b6121d7816131d7565b840191505092915050565b60006121ed82612e42565b6121f78185612e5e565b9350612207818560208601613012565b612210816131d7565b840191505092915050565b600061222682612e42565b6122308185612e6f565b9350612240818560208601613012565b80840191505092915050565b6000612259603283612e5e565b91507f4552433732313a207472616e7366657220746f206e6f6e20455243373231526560008301527f63656976657220696d706c656d656e74657200000000000000000000000000006020830152604082019050919050565b60006122bf601c83612e5e565b91507f4552433732313a20746f6b656e20616c7265616479206d696e746564000000006000830152602082019050919050565b60006122ff602483612e5e565b91507f4552433732313a207472616e7366657220746f20746865207a65726f2061646460008301527f72657373000000000000000000000000000000000000000000000000000000006020830152604082019050919050565b6000612365601983612e5e565b91507f4552433732313a20617070726f766520746f2063616c6c6572000000000000006000830152602082019050919050565b60006123a5602c83612e5e565b91507f4552433732313a206f70657261746f7220717565727920666f72206e6f6e657860008301527f697374656e7420746f6b656e00000000000000000000000000000000000000006020830152604082019050919050565b600061240b607183612e6f565b91507f222c2022696d616765223a202268747470733a2f2f676174657761792e70696e60008301527f6174612e636c6f75642f697066732f516d514d323272626b6b3678445758434160208301527f50576f64344c644b466d7670784266566d54355a5a635a3662475176382f6d7560408301527f726d75726174696f6e735f616c7068615f0000000000000000000000000000006060830152607182019050919050565b60006124bd603883612e5e565b91507f4552433732313a20617070726f76652063616c6c6572206973206e6f74206f7760008301527f6e6572206e6f7220617070726f76656420666f7220616c6c00000000000000006020830152604082019050919050565b6000612523602a83612e5e565b91507f4552433732313a2062616c616e636520717565727920666f7220746865207a6560008301527f726f2061646472657373000000000000000000000000000000000000000000006020830152604082019050919050565b6000612589602983612e5e565b91507f4552433732313a206f776e657220717565727920666f72206e6f6e657869737460008301527f656e7420746f6b656e00000000000000000000000000000000000000000000006020830152604082019050919050565b60006125ef602e83612e5e565b91507f45524337323155524953746f726167653a2055524920736574206f66206e6f6e60008301527f6578697374656e7420746f6b656e0000000000000000000000000000000000006020830152604082019050919050565b6000612655602083612e5e565b91507f4552433732313a206d696e7420746f20746865207a65726f20616464726573736000830152602082019050919050565b6000612695603183612e5e565b91507f45524337323155524953746f726167653a2055524920717565727920666f722060008301527f6e6f6e6578697374656e7420746f6b656e0000000000000000000000000000006020830152604082019050919050565b60006126fb602c83612e5e565b91507f4552433732313a20617070726f76656420717565727920666f72206e6f6e657860008301527f697374656e7420746f6b656e00000000000000000000000000000000000000006020830152604082019050919050565b6000612761601e83612e6f565b91507f7b226e616d65223a20224d75726d75726174696f6e7320416c706861202300006000830152601e82019050919050565b60006127a1602983612e5e565b91507f4552433732313a207472616e73666572206f6620746f6b656e2074686174206960008301527f73206e6f74206f776e00000000000000000000000000000000000000000000006020830152604082019050919050565b6000612807602f83612e5e565b91507f4552433732314d657461646174613a2055524920717565727920666f72206e6f60008301527f6e6578697374656e7420746f6b656e00000000000000000000000000000000006020830152604082019050919050565b600061286d602783612e6f565b91507f222c20226465736372697074696f6e223a20224d75726d75726174696f6e732060008301527f416c7068612023000000000000000000000000000000000000000000000000006020830152602782019050919050565b60006128d3600683612e6f565b91507f2e706e67227d00000000000000000000000000000000000000000000000000006000830152600682019050919050565b6000612913602183612e5e565b91507f4552433732313a20617070726f76616c20746f2063757272656e74206f776e6560008301527f72000000000000000000000000000000000000000000000000000000000000006020830152604082019050919050565b6000612979601d83612e6f565b91507f646174613a6170706c69636174696f6e2f6a736f6e3b6261736536342c0000006000830152601d82019050919050565b60006129b9603183612e5e565b91507f4552433732313a207472616e736665722063616c6c6572206973206e6f74206f60008301527f776e6572206e6f7220617070726f7665640000000000000000000000000000006020830152604082019050919050565b612a1b81612ff9565b82525050565b6000612a2d828561221b565b9150612a39828461221b565b91508190509392505050565b6000612a5082612754565b9150612a5c828661221b565b9150612a6782612860565b9150612a73828561221b565b9150612a7e826123fe565b9150612a8a828461221b565b9150612a95826128c6565b9150819050949350505050565b6000612aad8261296c565b9150612ab9828461221b565b915081905092915050565b6000602082019050612ad9600083018461218b565b92915050565b6000608082019050612af4600083018761218b565b612b01602083018661218b565b612b0e6040830185612a12565b8181036060830152612b2081846121a9565b905095945050505050565b6000602082019050612b40600083018461219a565b92915050565b60006020820190508181036000830152612b6081846121e2565b905092915050565b60006080820190508181036000830152612b8281876121e2565b9050612b916020830186612a12565b612b9e604083018561218b565b8181036060830152612bb081846121e2565b905095945050505050565b60006020820190508181036000830152612bd48161224c565b9050919050565b60006020820190508181036000830152612bf4816122b2565b9050919050565b60006020820190508181036000830152612c14816122f2565b9050919050565b60006020820190508181036000830152612c3481612358565b9050919050565b60006020820190508181036000830152612c5481612398565b9050919050565b60006020820190508181036000830152612c74816124b0565b9050919050565b60006020820190508181036000830152612c9481612516565b9050919050565b60006020820190508181036000830152612cb48161257c565b9050919050565b60006020820190508181036000830152612cd4816125e2565b9050919050565b60006020820190508181036000830152612cf481612648565b9050919050565b60006020820190508181036000830152612d1481612688565b9050919050565b60006020820190508181036000830152612d34816126ee565b9050919050565b60006020820190508181036000830152612d5481612794565b9050919050565b60006020820190508181036000830152612d74816127fa565b9050919050565b60006020820190508181036000830152612d9481612906565b9050919050565b60006020820190508181036000830152612db4816129ac565b9050919050565b6000602082019050612dd06000830184612a12565b92915050565b6000604051905081810181811067ffffffffffffffff82111715612dfd57612dfc6131a8565b5b8060405250919050565b600067ffffffffffffffff821115612e2257612e216131a8565b5b601f19601f8301169050602081019050919050565b600081519050919050565b600081519050919050565b600082825260208201905092915050565b600082825260208201905092915050565b600081905092915050565b6000612e8582612ff9565b9150612e9083612ff9565b9250827fffffffffffffffffffffffffffffffffffffffffffffffffffffffffffffffff03821115612ec557612ec461311b565b5b828201905092915050565b6000612edb82612ff9565b9150612ee683612ff9565b925082612ef657612ef561314a565b5b828204905092915050565b6000612f0c82612ff9565b9150612f1783612ff9565b9250817fffffffffffffffffffffffffffffffffffffffffffffffffffffffffffffffff0483118215151615612f5057612f4f61311b565b5b828202905092915050565b6000612f6682612ff9565b9150612f7183612ff9565b925082821015612f8457612f8361311b565b5b828203905092915050565b6000612f9a82612fd9565b9050919050565b60008115159050919050565b60007fffffffff0000000000000000000000000000000000000000000000000000000082169050919050565b600073ffffffffffffffffffffffffffffffffffffffff82169050919050565b6000819050919050565b82818337600083830152505050565b60005b83811015613030578082015181840152602081019050613015565b8381111561303f576000848401525b50505050565b600061305082612ff9565b915060008214156130645761306361311b565b5b600182039050919050565b6000600282049050600182168061308757607f821691505b6020821081141561309b5761309a613179565b5b50919050565b60006130ac82612ff9565b91507fffffffffffffffffffffffffffffffffffffffffffffffffffffffffffffffff8214156130df576130de61311b565b5b600182019050919050565b60006130f582612ff9565b915061310083612ff9565b9250826131105761310f61314a565b5b828206905092915050565b7f4e487b7100000000000000000000000000000000000000000000000000000000600052601160045260246000fd5b7f4e487b7100000000000000000000000000000000000000000000000000000000600052601260045260246000fd5b7f4e487b7100000000000000000000000000000000000000000000000000000000600052602260045260246000fd5b7f4e487b7100000000000000000000000000000000000000000000000000000000600052604160045260246000fd5b6000601f19601f8301169050919050565b6131f181612f8f565b81146131fc57600080fd5b50565b61320881612fa1565b811461321357600080fd5b50565b61321f81612fad565b811461322a57600080fd5b50565b61323681612ff9565b811461324157600080fd5b5056fe4142434445464748494a4b4c4d4e4f505152535455565758595a6162636465666768696a6b6c6d6e6f707172737475767778797a303132333435363738392b2f416e204e465420772f20494420257320686173206265656e206d696e74656420746f2025732077697468206d65746164617461202573a2646970667358221220b0cf6cba8e8f5605d802c593c063c92a7897966b344008aa6d2e791dd071a2ce64736f6c634300080000334c6f6164696e67204d75726d75726174696f6e204e465420636f6e74726163742e",
    "linkReferences": {},
    "deployedLinkReferences": {}
}